:100000000C942A000C946F0A0C9447000C9447003F
:100010000C9447000C9405090C9447000C9447007D
:100020000C9447000C9447000C9447000C946A070A
:100030000C9447000C9447000C9447000C94470024
:100040000C9447000C9447000C9447000C94470014
:100050000C94470011241FBECFE5D8E0DEBFCDBF12
:1000600010E0A0E6B0E0EAE6FBE202C005900D92E7
:10007000AA3AB107D9F710E0AAEAB0E001C01D9290
:10008000A43CB107E1F70E9451150C94B3150C94F0
:100090000000EF92FF920F931F937B018C0120E0F1
:1000A00030E040E05FE40E94F50388238CF0C80153
:1000B000B70120E030E040E05FE40E94C1010E940F
:1000C00055049B01AC01205030404040504806C0D0
:1000D000C801B7010E9455049B01AC01B901CA01D6
:1000E0001F910F91FF90EF900895A0E0B0E0EBE733
:1000F000F0E00C947C15DC012B01FA019C9192300C
:1001000008F439C1EB018881823008F433C194309E
:1001100069F4843009F02FC111969C91119789815F
:10012000981709F428C1A0E6B0E025C1843009F48D
:1001300021C18230A9F4923009F01DC19A01AD01AC
:1001400088E0EA010990AE01E90109929E0181501F
:10015000C1F7E201898111969C918923818308C1AD
:10016000923009F407C112962D903C901397EB0141
:100170008A819B811496AD90BD90CD90DC901797AD
:10018000EC80FD800E811F819101281B390BB90184
:1001900037FF04C066277727621B730B6032710537
:1001A0000CF061C0121613066CF537014801062EDB
:1001B00004C096948794779467940A94D2F721E0C8
:1001C00030E040E050E004C0220F331F441F551FB1
:1001D0006A95D2F721503040404050402E213F21B7
:1001E00040235123211531054105510521F021E01E
:1001F00030E040E050E079018A01E628F72808293C
:1002000019293CC0232BD1F1260E371E350146019A
:10021000062E04C096948794779467940A94D2F734
:1002200021E030E040E050E004C0220F331F441FC3
:10023000551F6A95D2F721503040404050402A2146
:100240003B214C215D21211531054105510521F04E
:1002500021E030E040E050E059016A01A628B728CB
:10026000C828D9280BC0821593052CF01C01AA249C
:10027000BB24650103C0EE24FF24870111969C91E5
:10028000D20111968C91981709F445C0992339F041
:10029000A80197012A193B094C095D0906C0A6016E
:1002A00095012E193F09400B510B57FD08C01182D3
:1002B0003382228224833583468357831DC081E0A5
:1002C00081833382228288279927DC01821B930B4A
:1002D000A40BB50B84839583A683B7830DC0220F2F
:1002E000331F441F551F24833583468357838281E0
:1002F000938101979383828324813581468157813D
:10030000DA01C9010197A109B1098F5F9F4FAF4F72
:10031000BF4328F30BC0918333822282EA0CFB1C7B
:100320000C1D1D1DE482F5820683178383E0808304
:10033000248135814681578157FF1AC0C901AA27F8
:1003400097FDA095BA2F81709070A070B0705695EF
:10035000479537952795822B932BA42BB52B848318
:100360009583A683B7838281938101969383828349
:10037000DF0101C0D201CD01CDB7DEB7E2E10C94BF
:100380009815A0E2B0E0E7ECF1E00C9488156983E1
:100390007A838B839C832D833E834F835887E9E048
:1003A000EE2EF12CEC0EFD1ECE010196B7010E943F
:1003B0007E058E010F5E1F4FCE010596B8010E948B
:1003C0007E058A8991E089278A8BC701B801AE0131
:1003D000475E5F4F0E9475000E94A904A096E6E068
:1003E0000C94A415A0E2B0E0E8EFF1E00C948815BD
:1003F00069837A838B839C832D833E834F835887C5
:10040000F9E0EF2EF12CEC0EFD1ECE010196B701A6
:100410000E947E058E010F5E1F4FCE010596B8012A
:100420000E947E05C701B801AE01475E5F4F0E9482
:1004300075000E94A904A096E6E00C94A415A0E221
:10044000B0E0E5E2F2E00C947C1569837A838B835B
:100450009C832D833E834F835887CE010196BE0136
:10046000675F7F4F0E947E05CE010596BE016F5EDD
:100470007F4F0E947E059985923088F0898982306D
:10048000C8F0943019F4823051F404C0843029F457
:10049000923081F480E690E0C6C0923049F420E0CA
:1004A0009A858A89981321E02A87CE010996BBC0D4
:1004B000823049F420E09A858A89981321E02A8BBA
:1004C000CE014196B0C02D843E844F8458886D88FB
:1004D0007E888F88988CEE24FF248701AA24BB2471
:1004E000650140E050E060E070E0E0E0F0E0C10174
:1004F00081709070892BE9F0E60CF71C081D191D1E
:100500009A01AB012A0D3B1D4C1D5D1D80E090E062
:10051000A0E0B0E0E614F7040805190520F481E036
:1005200090E0A0E0B0E0BA01A901480F591F6A1F8E
:100530007B1FAA0CBB1CCC1CDD1C97FE08C081E0F5
:1005400090E0A0E0B0E0A82AB92ACA2ADB2A3196B6
:10055000E032F10549F0660C771C881C991C569412
:10056000479437942794C3CFFA85EA892B893C892D
:100570008B859C85280F391F2E5F3F4F17C0CA01FE
:1005800081709070892B61F016950795F794E79428
:1005900080E090E0A0E0B0E8E82AF92A0A2B1B2BC3
:1005A00076956795579547952F5F3F4F77FDE7CF36
:1005B0000CC0440F551F661F771F17FD4160EE0CDE
:1005C000FF1C001F111F21503040403090E05907A0
:1005D00090E0690790E4790760F32B8F3C8FDB0193
:1005E000CA018F779070A070B07080349105A1051A
:1005F000B10561F447FD0AC0E114F10401051105DC
:1006000029F0405C5F4F6F4F7F4F40781A8EFE1786
:1006100011F081E08A8F4D8F5E8F6F8F78A383E01A
:10062000898FCE0149960E94A904A096E2E10C941C
:100630009815A8E1B0E0EFE1F3E00C94841569832C
:100640007A838B839C832D833E834F835887B9E0C5
:10065000EB2EF12CEC0EFD1ECE010196B7010E948F
:100660007E058E010F5E1F4FCE010596B8010E94D8
:100670007E052985223008F47EC03989323010F495
:10068000B8017CC08A859A8989278A87243011F02D
:10069000223031F4231709F06EC060E670E06EC0BE
:1006A000343039F41D861E861F86188A1C861B86E8
:1006B00004C0323021F484E08987B7015FC02B8504
:1006C0003C858B899C89281B390B3C872B87ED84C3
:1006D000FE840F851889AD88BE88CF88D88CEA142F
:1006E000FB040C051D0540F4EE0CFF1C001F111F40
:1006F000215030403C872B8720E030E040E050E044
:1007000080E090E0A0E0B0E460E070E0EA14FB0478
:100710000C051D0540F0282B392B4A2B5B2BEA18C2
:10072000FB080C091D09B695A79597958795EE0CC2
:10073000FF1C001F111F6F5F7F4F6F31710531F775
:10074000DA01C9018F779070A070B0708034910584
:10075000A105B10561F427FD0AC0E114F10401050A
:10076000110529F0205C3F4F4F4F5F4F20782D87B8
:100770003E874F87588BBE01675F7F4FCB010E943A
:10078000A9046896EAE00C94A015A8E1B0E0EBECAF
:10079000F3E00C94881569837A838B839C832D8383
:1007A0003E834F83588789E0E82EF12CEC0EFD1E26
:1007B000CE010196B7010E947E058E010F5E1F4F8C
:1007C000CE010596B8010E947E058985823040F0F1
:1007D0008989823028F0C701B8010E94F60501C05E
:1007E0008FEF6896E6E00C94A415A8E1B0E0EBEF7B
:1007F000F3E00C94881569837A838B839C832D8323
:100800003E834F83588789E0E82EF12CEC0EFD1EC5
:10081000CE010196B7010E947E058E010F5E1F4F2B
:10082000CE010596B8010E947E058985823040F090
:100830008989823028F0C701B8010E94F60501C0FD
:100840008FEF6896E6E00C94A415A8E1B0E0EBE227
:10085000F4E00C94881569837A838B839C832D83C1
:100860003E834F83588789E0E82EF12CEC0EFD1E65
:10087000CE010196B7010E947E058E010F5E1F4FCB
:10088000CE010596B8010E947E058985823040F030
:100890008989823028F0C701B8010E94F60501C09D
:1008A00081E06896E6E00C94A415ACE0B0E0EBE5DE
:1008B000F4E00C948C1569837A838B839C83CE013E
:1008C0000196BE016B5F7F4F0E947E058D81823055
:1008D00061F1823050F1843021F48E81882351F10E
:1008E0002EC02F81388537FD20C06E812F31310514
:1008F0001CF06623F9F023C08EE190E0821B930B7D
:1009000029853A854B855C8504C056954795379572
:1009100027958A95D2F76623B1F05095409530958A
:1009200021953F4F4F4F5F4F0EC020E030E040E039
:1009300050E009C02FEF3FEF4FEF5FE704C020E02A
:1009400030E040E050E8B901CA012C96E2E00C9496
:10095000A815DF92EF92FF920F931F93FC01E480A2
:10096000F58006811781D1808081823048F480E053
:1009700090E0A0E1B0E0E82AF92A0A2B1B2BA5C0E1
:10098000843009F49FC0823021F4EE24FF248701D3
:1009900005C0E114F1040105110519F4E0E0F0E0EF
:1009A00096C0628173819FEF623879070CF05BC05B
:1009B00022E83FEF261B370B2A3131052CF020E0CF
:1009C00030E040E050E02AC0B801A701022E04C088
:1009D00076956795579547950A94D2F781E090E010
:1009E000A0E0B0E004C0880F991FAA1FBB1F2A9582
:1009F000D2F70197A109B1098E219F21A023B1232C
:100A00000097A105B10521F081E090E0A0E0B0E001
:100A10009A01AB01282B392B4A2B5B2BDA01C90138
:100A20008F779070A070B07080349105A105B105EA
:100A300039F427FF09C0205C3F4F4F4F5F4F04C080
:100A4000215C3F4F4F4F5F4FE0E0F0E02030A0E0EF
:100A50003A07A0E04A07A0E45A0710F0E1E0F0E00E
:100A600079018A0127C06038710564F5FB01E158FE
:100A7000FF4FD801C7018F779070A070B07080349D
:100A80009105A105B10539F4E7FE0DC080E490E0C1
:100A9000A0E0B0E004C08FE390E0A0E0B0E0E80E9A
:100AA000F91E0A1F1B1F17FF05C016950795F7941F
:100AB000E794319687E016950795F794E7948A9521
:100AC000D1F705C0EE24FF248701EFEFF0E06E2F91
:100AD000679566276795902F9F77D794DD24D794E5
:100AE0008E2F8695492F462B582F5D29B701CA01B5
:100AF0001F910F91FF90EF90DF900895FC01DB01B3
:100B0000408151812281622F6F7770E0221F22275E
:100B1000221F9381892F880F822B282F30E0991F65
:100B20009927991F11969C93119721153105A9F5C5
:100B3000411551056105710511F482E037C082E865
:100B40009FEF13969C938E9312979A01AB0167E0E7
:100B5000220F331F441F551F6A95D1F783E08C93F2
:100B60000DC0220F331F441F551F12968D919C916B
:100B70001397019713969C938E931297203080E0E1
:100B8000380780E0480780E4580758F314962D93FF
:100B90003D934D935C93179708952F3F310579F45A
:100BA000411551056105710519F484E08C93089590
:100BB00064FF03C081E08C9312C01C9210C02F57B9
:100BC000304013963C932E93129783E08C9387E0EA
:100BD000440F551F661F771F8A95D1F770641496CE
:100BE0004D935D936D937C93179708951F93DC014C
:100BF000FB019C91923008F447C08081823008F458
:100C000043C0943051F411961C91843099F5818140
:100C1000682F70E0611B71093FC0843021F0923071
:100C200031F48230B9F18181882389F12DC0119688
:100C30001C9111978230F1F081811817D9F4129626
:100C40002D913C911397828193818217930794F0A1
:100C500028173907BCF014968D919D910D90BC9189
:100C6000A02D2481358146815781281739074A07ED
:100C70005B0718F4112341F00AC082179307A407F9
:100C8000B50740F4112319F061E070E005C06FEF83
:100C90007FEF02C060E070E0CB011F910895DF9309
:100CA000CF9300D00F92CDB7DEB789836A834B8391
:100CB000A3E5B0E0E3E5F0E080818F7B8C93A3E5D2
:100CC000B0E0E3E5F0E08081877F8C93E2E5F0E03F
:100CD0008A81808389810E9488068B81813041F4DA
:100CE000A9E5B0E0E9E5F0E0808181608C930AC07D
:100CF0008B81882339F4A9E5B0E0E9E5F0E0808153
:100D00008E7F8C930F900F900F90CF91DF9108956D
:100D1000DF93CF930F92CDB7DEB78983898181307E
:100D2000B1F4A3E5B0E0E3E5F0E0808181608C936D
:100D3000A3E5B0E0E3E5F0E080818D7F8C93A3E54F
:100D4000B0E0E3E5F0E080818B7F8C9395C08981F2
:100D50008230B1F4A3E5B0E0E3E5F0E080818E7F7E
:100D60008C93A3E5B0E0E3E5F0E0808182608C93B2
:100D7000A3E5B0E0E3E5F0E080818B7F8C937CC05D
:100D800089818330B1F4A3E5B0E0E3E5F0E0808150
:100D900081608C93A3E5B0E0E3E5F0E080818260C0
:100DA0008C93A3E5B0E0E3E5F0E080818B7F8C934A
:100DB00063C089818430B1F4A3E5B0E0E3E5F0E0FD
:100DC00080818E7F8C93A3E5B0E0E3E5F0E0808145
:100DD0008D7F8C93A3E5B0E0E3E5F0E08081846053
:100DE0008C934AC089818530B1F4A3E5B0E0E3E596
:100DF000F0E0808181608C93A3E5B0E0E3E5F0E072
:100E000080818D7F8C93A3E5B0E0E3E5F0E0808105
:100E100084608C9331C089818630B1F4A3E5B0E061
:100E2000E3E5F0E080818E7F8C93A3E5B0E0E3E51D
:100E3000F0E0808182608C93A3E5B0E0E3E5F0E030
:100E4000808184608C9318C089818630A9F4A3E5E1
:100E5000B0E0E3E5F0E0808181608C93A3E5B0E051
:100E6000E3E5F0E0808182608C93A3E5B0E0E3E508
:100E7000F0E0808184608C930F90CF91DF91089592
:100E8000DF93CF93CDB7DEB7A3E5B0E0E3E5F0E0C5
:100E900080818E7F8C93A3E5B0E0E3E5F0E0808174
:100EA0008D7F8C93A3E5B0E0E3E5F0E080818B7F5C
:100EB0008C93CF91DF910895DF93CF930F92CDB7AD
:100EC000DEB78983E2E5F0E0898180830F90CF91DE
:100ED000DF9108951F920F920FB60F9211242F9356
:100EE0003F934F935F936F937F938F939F93AF93B2
:100EF000BF93EF93FF93DF93CF93CDB7DEB780918E
:100F0000AE009091AF0001969093AF008093AE0039
:100F10008091AA009091AB00009789F08091AE007B
:100F20009091AF0028E18A36920749F4E091AA0037
:100F3000F091AB0009951092AF001092AE00CF91E6
:100F4000DF91FF91EF91BF91AF919F918F917F9131
:100F50006F915F914F913F912F910F900FBE0F9026
:100F60001F901895DF93CF93CDB7DEB7E2E5F0E0A1
:100F70008081CF91DF910895DF93CF93CDB7DEB716
:100F8000A9E5B0E0E9E5F0E0808181608C93CF9144
:100F9000DF910895DF93CF93CDB7DEB7A9E5B0E039
:100FA000E9E5F0E080818E7F8C93CF91DF91089509
:100FB000DF93CF9300D0CDB7DEB79A838983898141
:100FC0009A819093AB008093AA000F900F90CF91DD
:100FD000DF910895DF93CF9300D00F92CDB7DEB7A6
:100FE00089836A834B83A5E4B0E0E5E4F0E0808187
:100FF000877F8C93A5E4B0E0E5E4F0E080818F7B0F
:101000008C93E4E4F0E08A81808389810E94230844
:101010008B81813041F4A9E5B0E0E9E5F0E0808121
:1010200080648C930AC08B81882339F4A9E5B0E0F1
:10103000E9E5F0E080818F7B8C930F900F900F900B
:10104000CF91DF910895DF93CF930F92CDB7DEB7A5
:10105000898389818130B1F4A5E4B0E0E5E4F0E072
:10106000808181608C93A5E4B0E0E5E4F0E08081CC
:101070008D7F8C93A5E4B0E0E5E4F0E080818B7F88
:101080008C9395C089818230B1F4A5E4B0E0E5E4A9
:10109000F0E080818E7F8C93A5E4B0E0E5E4F0E0A1
:1010A000808182608C93A5E4B0E0E5E4F0E080818B
:1010B0008B7F8C937CC089818330B1F4A5E4B0E050
:1010C000E5E4F0E0808181608C93A5E4B0E0E5E4A4
:1010D000F0E0808182608C93A5E4B0E0E5E4F0E08C
:1010E00080818B7F8C9363C089818430B1F4A5E4C7
:1010F000B0E0E5E4F0E080818E7F8C93A5E4B0E081
:10110000E5E4F0E080818D7F8C93A5E4B0E0E5E438
:10111000F0E0808184608C934AC089818530B1F48D
:10112000A5E4B0E0E5E4F0E0808181608C93A5E483
:10113000B0E0E5E4F0E080818D7F8C93A5E4B0E041
:10114000E5E4F0E0808184608C9331C08981863051
:10115000B1F4A5E4B0E0E5E4F0E080818E7F8C930B
:10116000A5E4B0E0E5E4F0E0808182608C93A5E442
:10117000B0E0E5E4F0E0808184608C9318C0898160
:101180008630A9F4A5E4B0E0E5E4F0E08081816078
:101190008C93A5E4B0E0E5E4F0E0808182608C937C
:1011A000A5E4B0E0E5E4F0E0808184608C930F90EA
:1011B000CF91DF910895DF93CF93CDB7DEB7A5E44C
:1011C000B0E0E5E4F0E080818E7F8C93A5E4B0E0B0
:1011D000E5E4F0E080818D7F8C93A5E4B0E0E5E468
:1011E000F0E080818B7F8C93CF91DF910895DF9326
:1011F000CF930F92CDB7DEB78983E4E4F0E0898125
:1012000080830F90CF91DF9108951F920F920FB6B8
:101210000F9211242F933F934F935F936F937F937C
:101220008F939F93AF93BF93EF93FF93DF93CF93EE
:10123000CDB7DEB78091B0009091B1000196909348
:10124000B1008093B0008091AC009091AD00009708
:1012500089F08091B0009091B10024EF8432920720
:1012600049F4E091AC00F091AD0009951092B10005
:101270001092B000CF91DF91FF91EF91BF91AF91AC
:101280009F918F917F916F915F914F913F912F919E
:101290000F900FBE0F901F901895DF93CF93CDB78F
:1012A000DEB7E4E4F0E08081CF91DF910895DF9331
:1012B000CF93CDB7DEB7A9E5B0E0E9E5F0E08081F6
:1012C00080648C93CF91DF910895DF93CF93CDB756
:1012D000DEB7A9E5B0E0E9E5F0E080818F7B8C9393
:1012E000CF91DF910895DF93CF9300D0CDB7DEB7D4
:1012F0009A83898389819A819093AD008093AC0011
:101300000F900F90CF91DF910895DF93CF93CDB7DA
:10131000DEB7AFE5B0E0EFE5F0E0808180688C9368
:10132000CF91DF910895DF93CF93CDB7DEB7AFE5CF
:10133000B0E0EFE5F0E080818F778C93CF91DF9183
:101340000895DF93CF9300D00F92CDB7DEB7898396
:101350008981282F30E03B832A838A819B818130D9
:10136000910589F02A813B8122303105A1F08A81E3
:101370009B810097B1F4ABE5B0E0EBE5F0E0808154
:1013800080648C930EC0ABE5B0E0EBE5F0E08081CB
:1013900080688C9306C0EBE5F0E0ABE5B0E08C91A3
:1013A00080830F900F900F90CF91DF910895DF937E
:1013B000CF9300D00F92CDB7DEB789838981282FD4
:1013C00030E03B832A838A819B818130910589F0BB
:1013D0002A813B8122303105A1F08A819B810097CF
:1013E000B1F4ABE5B0E0EBE5F0E080818F7B8C936E
:1013F0000EC0ABE5B0E0EBE5F0E080818F778C9339
:1014000006C0EBE5F0E0ABE5B0E08C9180830F9097
:101410000F900F90CF91DF910895DF93CF9300D07D
:1014200000D0CDB7DEB789836A838981282F30E069
:101430003C832B838B819C818130910591F02B81A2
:101440003C8122303105E9F08B819C81009771F558
:10145000A5E5B0E0E5E5F0E090818A81892B8C93E9
:1014600025C0A5E5B0E0E5E5F0E08081282F8A8180
:10147000882F90E0880F991F880F991F822B8C93DB
:1014800015C08A81833041F4A4E5B0E0E4E5F0E0E2
:1014900080818F7B8C930AC08A81823039F4A4E5E5
:1014A000B0E0E4E5F0E0808180648C930F900F90D1
:1014B0000F900F90CF91DF910895DF93CF9300D0DD
:1014C000CDB7DEB79A83898389819A819093B300DF
:1014D0008093B2000F900F90CF91DF9108951F92EB
:1014E0000F920FB60F9211242F933F934F935F9358
:1014F0006F937F938F939F93AF93BF93EF93FF93DC
:10150000DF93CF93CDB7DEB7E091B200F091B30097
:101510000995CF91DF91FF91EF91BF91AF919F918D
:101520008F917F916F915F914F913F912F910F908C
:101530000FBE0F901F901895DF93CF9300D00F929E
:10154000CDB7DEB79A8389836B83ECE3F0E08081CB
:10155000882F90E0827090700097B9F7EFE3F0E089
:1015600089818083EEE3F0E089819A81892F992730
:101570008083EDE3F0E08B818083ACE3B0E0ECE3CB
:10158000F0E0808184608C93ACE3B0E0ECE3F0E0C9
:10159000808182608C930F900F900F90CF91DF919C
:1015A0000895DF93CF9300D0CDB7DEB79A838983B8
:1015B000ECE3F0E08081882F90E0827090700097DB
:1015C000B9F7EFE3F0E089818083EEE3F0E0898111
:1015D0009A81892F99278083ACE3B0E0ECE3F0E0B7
:1015E000808181608C93EDE3F0E080810F900F901B
:1015F000CF91DF910895DF93CF9300D000D00F9269
:10160000CDB7DEB71B821B82FCC08B818695869589
:1016100086958A838B81877089838A81282F30E021
:101620003D832C838C819D818130910509F44BC0D1
:101630002C813D81223031052CF48C819D810097D5
:1016400071F0DCC02C813D812230310509F46FC07E
:101650008C819D818330910509F49DC0CFC08B8121
:10166000882F90E0880F991FFC01E859FF4F808177
:101670008130A1F4AAE3B0E0EAE3F0E08081482FF2
:101680008981282F30E081E090E0022E02C0880F8F
:10169000991F0A94E2F7842B8C93B0C0AAE3B0E0C0
:1016A000EAE3F0E08081482F8981282F30E081E053
:1016B00090E0022E02C0880F991F0A94E2F78095ED
:1016C00084238C939BC08B81882F90E0880F991F77
:1016D000FC01E859FF4F80818130A1F4A7E3B0E01D
:1016E000E7E3F0E08081482F8981282F30E081E016
:1016F00090E0022E02C0880F991F0A94E2F7842B13
:101700008C937CC0A7E3B0E0E7E3F0E08081482F52
:101710008981282F30E081E090E0022E02C0880FFE
:10172000991F0A94E2F7809584238C9367C08B817C
:10173000882F90E0880F991FFC01E859FF4F8081A6
:101740008130A1F4A4E3B0E0E4E3F0E08081482F2D
:101750008981282F30E081E090E0022E02C0880FBE
:10176000991F0A94E2F7842B8C9348C0A4E3B0E05D
:10177000E4E3F0E08081482F8981282F30E081E088
:1017800090E0022E02C0880F991F0A94E2F780951C
:1017900084238C9333C08B81882F90E0880F991F0E
:1017A000FC01E859FF4F80818130A1F4A1E3B0E052
:1017B000E1E3F0E08081482F8981282F30E081E04B
:1017C00090E0022E02C0880F991F0A94E2F7842B42
:1017D0008C9314C0A1E3B0E0E1E3F0E08081482FF6
:1017E0008981282F30E081E090E0022E02C0880F2E
:1017F000991F0A94E2F7809584238C938B818F5FE5
:101800008B838B81803208F400CF0F900F900F9064
:101810000F900F90CF91DF910895DF93CF9300D079
:1018200000D000D0CDB7DEB78B836C838B818695DB
:10183000869586958A838B81877089838A81282FF4
:1018400030E03E832D838D819E818130910509F4A6
:1018500043C02D813E81223031052CF48D819E8143
:10186000009771F0BCC02D813E812230310509F412
:101870005FC08D819E818330910509F485C0AFC022
:101880008C818130A1F4ABE3B0E0EBE3F0E0808148
:10189000482F8981282F30E081E090E0022E02C09D
:1018A000880F991F0A94E2F7842B8C9398C0ABE3BE
:1018B000B0E0EBE3F0E08081482F8981282F30E011
:1018C00081E090E0022E02C0880F991F0A94E2F78F
:1018D000809584238C9383C08C818130A1F4A8E30C
:1018E000B0E0E8E3F0E08081482F8981282F30E0E4
:1018F00081E090E0022E02C0880F991F0A94E2F75F
:10190000842B8C936CC0A8E3B0E0E8E3F0E0808126
:10191000482F8981282F30E081E090E0022E02C01C
:10192000880F991F0A94E2F7809584238C9357C0FF
:101930008C818130A1F4A5E3B0E0E5E3F0E08081A3
:10194000482F8981282F30E081E090E0022E02C0EC
:10195000880F991F0A94E2F7842B8C9340C0A5E36B
:10196000B0E0E5E3F0E08081482F8981282F30E066
:1019700081E090E0022E02C0880F991F0A94E2F7DE
:10198000809584238C932BC08C818130A1F4A2E3B9
:10199000B0E0E2E3F0E08081482F8981282F30E039
:1019A00081E090E0022E02C0880F991F0A94E2F7AE
:1019B000842B8C9314C0A2E3B0E0E2E3F0E08081DA
:1019C000482F8981282F30E081E090E0022E02C06C
:1019D000880F991F0A94E2F7809584238C932696AA
:1019E0000FB6F894DEBF0FBECDBFCF91DF91089543
:1019F000DF93CF9300D000D000D0CDB7DEB78C837B
:101A00008C818695869586958B838C8187708A8359
:101A100019828B81282F30E03E832D834D815E819A
:101A20004130510541F18D819E818230910534F420
:101A30002D813E812115310561F052C04D815E81BD
:101A40004230510551F18D819E8183309105B9F16C
:101A500047C0E9E3F0E08081282F30E08A81882FB9
:101A600090E0A90102C0559547958A95E2F7CA0111
:101A70008170898335C0E6E3F0E08081282F30E073
:101A80008A81882F90E0A90102C0559547958A95D3
:101A9000E2F7CA018170898323C0E3E3F0E080812B
:101AA000282F30E08A81882F90E0A90102C0559547
:101AB00047958A95E2F7CA018170898311C0E0E3F6
:101AC000F0E08081282F30E08A81882F90E0A90102
:101AD00002C0559547958A95E2F7CA0181708983BE
:101AE000898126960FB6F894DEBF0FBECDBFCF9189
:101AF000DF910895DF93CF9300D000D00F92CDB740
:101B0000DEB78B838B818695869586958A838B81BC
:101B1000877089838A81282F30E03D832C838C81D4
:101B20009D818130910549F12C813D812230310523
:101B30002CF48C819D81009761F05AC02C813D81ED
:101B40002230310571F18C819D8183309105E9F15D
:101B50004FC0ABE3B0E0EBE3F0E08081482F898138
:101B6000282F30E081E090E0022E02C0880F991FFC
:101B70000A94E2F784278C933BC0A8E3B0E0E8E343
:101B8000F0E08081482F8981282F30E081E090E0CB
:101B9000022E02C0880F991F0A94E2F784278C93C3
:101BA00027C0A5E3B0E0E5E3F0E08081482F89811C
:101BB000282F30E081E090E0022E02C0880F991FAC
:101BC0000A94E2F784278C9313C0A2E3B0E0E2E327
:101BD000F0E08081482F8981282F30E081E090E07B
:101BE000022E02C0880F991F0A94E2F784278C9373
:101BF0000F900F900F900F900F90CF91DF9108955D
:101C0000DF93CF9300D000D0CDB7DEB78A8319829F
:101C10008A81282F30E03C832B838B819C8181300B
:101C20009105D1F02B813C81223031052CF48B8140
:101C30009C81009761F01EC02B813C8122303105D0
:101C400081F08B819C818330910581F013C0EBE39F
:101C5000F0E0808189830EC0E8E3F0E08081898331
:101C600009C0E5E3F0E08081898304C0E2E3F0E0AD
:101C70008081898389810F900F900F900F90CF9171
:101C8000DF910895DF93CF9300D000D0CDB7DEB7BA
:101C900089836A838981282F30E03C832B838B8161
:101CA0009C8181309105D1F02B813C81223031051E
:101CB0002CF48B819C81009761F01EC02B813C81AC
:101CC0002230310581F08B819C818330910581F038
:101CD00013C0EBE3F0E08A8180830EC0E8E3F0E01C
:101CE0008A81808309C0E5E3F0E08A81808304C0B3
:101CF000E2E3F0E08A8180830F900F900F900F90C5
:101D0000CF91DF910895DF93CF9300D000D000D022
:101D1000CDB7DEB78B836C838B8186958695869550
:101D20008A838B81877089838A81282F30E03E8364
:101D30002D838D819E818130910509F443C02D81D1
:101D40003E81223031052CF48D819E81009771F007
:101D5000BCC02D813E812230310509F45FC08D81E8
:101D60009E818330910509F485C0AFC08C8181309C
:101D7000A1F4AAE3B0E0EAE3F0E08081482F898192
:101D8000282F30E081E090E0022E02C0880F991FDA
:101D90000A94E2F7842B8C9398C0AAE3B0E0EAE3BC
:101DA000F0E08081482F8981282F30E081E090E0A9
:101DB000022E02C0880F991F0A94E2F780958423AF
:101DC0008C9383C08C818130A1F4A7E3B0E0E7E37A
:101DD000F0E08081482F8981282F30E081E090E079
:101DE000022E02C0880F991F0A94E2F7842B8C936D
:101DF0006CC0A7E3B0E0E7E3F0E08081482F898181
:101E0000282F30E081E090E0022E02C0880F991F59
:101E10000A94E2F7809584238C9357C08C8181309B
:101E2000A1F4A4E3B0E0E4E3F0E08081482F8981ED
:101E3000282F30E081E090E0022E02C0880F991F29
:101E40000A94E2F7842B8C9340C0A4E3B0E0E4E36F
:101E5000F0E08081482F8981282F30E081E090E0F8
:101E6000022E02C0880F991F0A94E2F780958423FE
:101E70008C932BC08C818130A1F4A1E3B0E0E1E32D
:101E8000F0E08081482F8981282F30E081E090E0C8
:101E9000022E02C0880F991F0A94E2F7842B8C93BC
:101EA00014C0A1E3B0E0E1E3F0E08081482F898134
:101EB000282F30E081E090E0022E02C0880F991FA9
:101EC0000A94E2F7809584238C9326960FB6F894B3
:101ED000DEBF0FBECDBFCF91DF910895DF93CF93CB
:101EE000CDB7DEB7A7E2B0E0E7E2F0E0808180683E
:101EF0008C93A7E2B0E0E7E2F0E0808180648C930D
:101F0000A6E2B0E0E6E2F0E0808181608C93A6E298
:101F1000B0E0E6E2F0E0808182608C93A6E2B0E07F
:101F2000E6E2F0E0808184608C93A6E2B0E0E6E235
:101F3000F0E0808180688C93CF91DF910895DF93EA
:101F4000CF9300D00F92CDB7DEB78B831A82198260
:101F5000A7E2B0E0E7E2F0E08081982F907E8B81ED
:101F60008F71892B8C93A6E2B0E0E6E2F0E08081ED
:101F700080648C93E6E2F0E0808182958F70882FF8
:101F800090E0817090700097A9F3A6E2B0E0E6E2DD
:101F9000F0E0808180618C93E4E2F0E08081882F22
:101FA00090E09A838983E5E2F0E08081882F90E0D9
:101FB000382F222789819A81822B932B9A838983B8
:101FC00089819A810F900F900F90CF91DF910895A2
:101FD000DF93CF930F92CDB7DEB784E0898384E09F
:101FE000898307C0898161E00E94830E89818F5FA8
:101FF000898389818430B0F38CE0898307C089812B
:1020000061E00E94830E89818F5F8983898184309A
:10201000B0F38AE061E00E94830E89E061E00E94F3
:10202000830E0F90CF91DF910895DF93CF93CDB7BB
:10203000DEB7E4970FB6F894DEBF0FBECDBF8BAB13
:102040006CAB1AAA19AABBC180E00E94000E8AAB31
:102050008AA9282F2F708BA9882F90E082959295BE
:10206000907F9827807F9827822B8AAB80E06AA98F
:102070000E94420E8AE060E00E940D0C80E090E039
:10208000A8ECB2E48DA79EA7AFA7B8AB6DA57EA5BF
:102090008FA598A92BEA3AEA4AEA50E40E941F0267
:1020A000DC01CB0189A79AA7ABA7BCA769A57AA534
:1020B0008BA59CA520E030E040E85FE30E9425046A
:1020C00088231CF481E088A791C069A57AA58BA517
:1020D0009CA520E030E04FE753E40E94C5031816AA
:1020E0000CF07BC06DA57EA58FA598A920E030E0FF
:1020F0004AE754E40E941903DC01CB018CA39DA3A1
:10210000AEA3BFA36CA17DA18EA19FA120E030E072
:102110004AE755E40E941F02DC01CB0188A399A382
:10212000AAA3BBA368A179A18AA19BA120E030E06A
:1021300040E85FE30E94250488232CF481E090E0CE
:102140009F8F8E8F3FC068A179A18AA19BA120E0BB
:102150003FEF4FE757E40E94C50318164CF56CA1FA
:102160007DA18EA19FA120E030E040E251E40E94D9
:102170001F02DC01CB01BC01CD010E944900DC0142
:10218000CB019F8F8E8F0FC080E991E09D8F8C8F48
:102190008C8D9D8D0197F1F79D8F8C8F8E8D9F8DEE
:1021A00001979F8F8E8F8E8D9F8D009769F724C02A
:1021B00068A179A18AA19BA10E944900DC01CB0101
:1021C0009F8F8E8F8E8D9F8D9B8F8A8F8A8D9B8DFB
:1021D0000197F1F79B8F8A8F0FC069A57AA58BA510
:1021E0009CA50E944900DC01CB0188A788A5898FA6
:1021F000898D8A95F1F7898F8AE061E00E940D0C44
:1022000081E00E94000E8AAB8AA9282F2F708CA92A
:10221000882F90E082959295907F9827807F9827CD
:10222000822B8AAB81E06AA90E94420E89E060E0BD
:102230000E940D0C80E090E0A8ECB2E48D8B9E8BA8
:10224000AF8BB88F6D897E898F89988D2BEA3AEA9A
:102250004AEA50E40E941F02DC01CB01898B9A8B71
:10226000AB8BBC8B69897A898B899C8920E030E0B3
:1022700040E85FE30E94250488231CF481E0888BFA
:1022800091C069897A898B899C8920E030E04FE789
:1022900053E40E94C50318160CF07BC06D897E893B
:1022A0008F89988D20E030E04AE754E40E941903BA
:1022B000DC01CB018C879D87AE87BF876C857D85D0
:1022C0008E859F8520E030E04AE755E40E941F029A
:1022D000DC01CB0188879987AA87BB8768857985C8
:1022E0008A859B8520E030E040E85FE30E9425047A
:1022F00088232CF481E090E09F838E833FC0688523
:1023000079858A859B8520E03FEF4FE757E40E945F
:10231000C50318164CF56C857D858E859F8520E05C
:1023200030E040E251E40E941F02DC01CB01BC011D
:10233000CD010E944900DC01CB019F838E830FC039
:1023400080E991E09D838C838C819D810197F1F7D9
:102350009D838C838E819F8101979F838E838E8145
:102360009F81009769F724C0688579858A859B8558
:102370000E944900DC01CB019F838E838E819F8167
:102380009B838A838A819B810197F1F79B838A8350
:102390000FC069897A898B899C890E944900DC0178
:1023A000CB01888B8889898389818A95F1F7898314
:1023B00089E061E00E940D0C89A98F5F89AB89A932
:1023C000883C08F441CEE4960FB6F894DEBF0FBE09
:1023D000CDBFCF91DF910895DF93CF93CDB7DEB717
:1023E00082E061E00E94830E83E161E00E94830E3F
:1023F00082E060E00E940D0C83E160E00E940D0C21
:10240000CF91DF910895DF93CF930F92CDB7DEB7D1
:102410008983898161E00E940D0C0F90CF91DF913B
:102420000895DF93CF930F92CDB7DEB7898389816B
:1024300060E00E940D0C0F90CF91DF910895DF9323
:10244000CF93CDB7DEB783E161E00E94830E82E0D7
:102450000E942D12CF91DF910895DF93CF9300D08A
:102460000F92CDB7DEB789838981282F30E03B8377
:102470002A838A819B81009749F02A813B81213000
:10248000310539F483E10E94031203C083E10E9405
:1024900011120F900F900F90CF91DF910895DF935D
:1024A000CF93CDB7DEB70E946E0FCF91DF91089525
:1024B000DF93CF9300D000D00F92CDB7DEB78B83E0
:1024C0001A8219828B810E949F0F9D838C838C813D
:1024D0009D8199232CF48C819D8103969D838C830F
:1024E0008C819D8195958795959587959A8389830C
:1024F00089819A810F900F900F900F900F90CF913C
:10250000DF910895DF93CF93CDB7DEB782E161E02D
:102510000E94830E87E161E00E94830E8BE161E0FF
:102520000E94830ECF91DF910895DF93CF930F9296
:10253000CDB7DEB78983898161E00E940D0C0F90D1
:10254000CF91DF910895DF93CF930F92CDB7DEB790
:102550008983898160E00E940D0C0F90CF91DF91FB
:102560000895DF93CF930F92CDB7DEB7898389812A
:102570000E947A0D0F90CF91DF910895DF93CF9352
:10258000CDB7DEB782E061E00E94830E82E00E9458
:10259000CC12CF91DF910895DF93CF9300D00F92AB
:1025A000CDB7DEB789838981282F30E03B832A832A
:1025B0008A819B81009749F02A813B812130310536
:1025C00039F482E00E94031203C082E00E941112DB
:1025D0000F900F900F90CF91DF910895DF93CF93DD
:1025E000CDB7DEB788E060E00E94830E8EE160E048
:1025F0000E94830E8AE160E00E94830ECF91DF91FA
:102600000895DF93CF9300D0CDB7DEB78A831982C8
:102610008A810E94F80C898389810F900F90CF9155
:10262000DF910895DF93CF93CDB7DEB71092B50059
:1026300086E493E10E945D0A80E062E00E940D0A58
:1026400080E00E94A109CF91DF910895DF93CF939D
:1026500000D0CDB7DEB78091B500282F30E03A83A7
:10266000298389819A81009731F029813A8121302B
:10267000310529F006C087E10E94A31202C00E9422
:10268000A5130F900F90CF91DF910895DF93CF9313
:10269000CDB7DEB78091B400813049F481E08093FA
:1026A000B5001092B40081E00E9488060FC08091AE
:1026B000B400882359F41092B50081E08093B400EF
:1026C00080E060E00E9415100E944015CF91DF91DC
:1026D0000895DF93CF93CDB7DEB71092C1008CE39E
:1026E0008093C3000E94FB0A0E94EE120E94821295
:1026F0000E94E80F0E94EC110E944F120E94BE122D
:102700000E941F120E9485098DE994E10E94D8075A
:102710008EEF94E10E94730980E060E041E00E9446
:102720004F0680E060E041E00E94EA0780E090E030
:102730000E94D10A8F3F31F080E090E00E94D10AE0
:102740008093C300CF91DF910895DF93CF9300D0A2
:10275000CDB7DEB78091C100282F30E03A832983BE
:1027600049815A814115510539F089819A81813019
:10277000910509F472C0DCC08091C300282F30E0BD
:102780008091B600882F90E0A901481B590BCA011F
:102790008530910599F481E00E94CC1280E00E947E
:1027A0002D128091A8008130C9F581E00E94230894
:1027B0001092A80081E08093B90030C08091B600EB
:1027C000282F30E08091C300882F90E0A901481B9A
:1027D000590BCA018530910589F480E00E94CC1222
:1027E00081E00E942D120E94DB081092B90081E066
:1027F0008093A80087E10E94951210C00E94DB0818
:102800001092B90081E08093A80080E00E94CC1271
:1028100080E00E942D1287E10E94A31288E00E94AE
:102820000113813031F08EE10E940113813009F0F3
:102830007FC00E94DB081092B90081E08093A8005D
:1028400087E10E94A31281E08093C10081E0809320
:10285000B80081E08093BC006BC08091B8008130EB
:1028600041F481E00E94230881E08093BA00109235
:10287000B8008091BC00813061F488E00E940113AF
:102880008130D9F38EE10E9401138130B1F31092AF
:10289000BC0088E00E9401138130B1F48091C30034
:1028A0008B3490F48091C3008B5F8093C3002091A0
:1028B000C30080E090E0622F0E949C0A81E0809338
:1028C000BC001092B70034C08EE10E940113813029
:1028D000B1F48091C300843290F08091C3008550A0
:1028E0008093C3002091C30080E090E0622F0E949B
:1028F0009C0A81E08093BC001092B70019C088E068
:102900000E9401138823A1F48EE10E940113882301
:1029100079F48091B700853059F40E94DB08109259
:10292000C1001092BA001092B70081E08093BB0002
:102930000F900F90CF91DF910895DF93CF9300D048
:10294000CDB7DEB71A8219828091BD008F5F809368
:10295000BD0080E00E9458128093C2009091C20096
:102960008091C000981721F08091C100882321F048
:102970008091BB008130A9F48091C2009AE0692F58
:102980000E945C15892F89838091C2009AE0692F8B
:102990000E945C158A838A8169810E9415101092B9
:1029A000BB008091C2008093C0008091C200282F9C
:1029B00030E08091BE009091BF00820F931F9093F2
:1029C000BF008093BE008091BD008A3091F4809159
:1029D000BE009091BF002AE030E0B9010E94681566
:1029E000CB018093B6001092BD001092BF001092F0
:1029F000BE000F900F90CF91DF910895DF93CF939A
:102A000000D0CDB7DEB71A8219828091B90081302B
:102A100021F487E10E94B1122EC08091BA0081306A
:102A200051F58091B7008F5F8093B7008091A90026
:102A30008130B1F48091C3009AE0692F0E945C1547
:102A4000892F89838091C3009AE0692F0E945C15C9
:102A50008A838A8169810E9415101092A9000BC097
:102A60008091A900882339F480E060E00E9415106D
:102A700081E08093A9000F900F90CF91DF9108958E
:102A8000DF93CF93CDB7DEB70E9440070E94DB08EB
:102A900081E08093B80081E08093A800CF91DF911E
:102AA0000895DF93CF93CDB7DEB70E9469130E94DC
:102AB00012130E942613FDCF991B79E004C0991FC1
:102AC000961708F0961B881F7A95C9F78095089588
:102AD000AA1BBB1B51E107C0AA1FBB1FA617B70744
:102AE00010F0A61BB70B881F991F5A95A9F7809560
:102AF0009095BC01CD0108952F923F924F925F9225
:102B00006F927F928F929F92AF92BF92CF92DF92FD
:102B1000EF92FF920F931F93CF93DF93CDB7DEB762
:102B2000CA1BDB0B0FB6F894DEBF0FBECDBF0994F6
:102B30002A88398848885F846E847D848C849B844D
:102B4000AA84B984C884DF80EE80FD800C811B815B
:102B5000AA81B981CE0FD11D0FB6F894DEBF0FBE8A
:0A2B6000CDBFED010895F894FFCFFA
:102B6A000000000000000000010101010101010153
:102B7A00010101010101010100010101010101013C
:102B8A00010101010101010101010000010101012D
:102B9A00010101010101010101010101000101011C
:0A2BAA00000000000000000001011F
:00000001FF
